:100A69000001000100010001000100010000000077
:100A7900000000000000000000000000000100006C
:100A89000001000000000001000100010001000058
:100A9900000000000001000000000001000000004B
:100AA900000000000000000000010001000000003B
:100AB900000100000000000100010000000000002A
:100AC900000000010000000000010000000000001B
:100AD9000001000100010001000100010000000106
:100AE90000000000000000000000000000010001FB
:100AF90000010000000000010001000100010001E7
:100B090000000000000100000000000100000001D9
:100B190000000000000000000001000100000001C9
:100B290000010000000000010001000000000001B8
:100B390000000001000000000001000000000001A9
:100B4900000000010000000000000000000000019A
:100B59000000000000000001000100010001000187
:100B6900000000000000000000000000000000017B
:100B7900000000000000000000010000000000016A
:100B8900000000000000000100000000000000015A
:100B99000001000100000000000000000000000149
:100BA9000000000100010000000000000001000138
:100BB9000001000000000000000000010000000129
:100E9A0002080000020A0032020C0000C102C1006E
:020EAA00C10184
:100E7F00D2AFD2A9D2A8C2AA5389F0438902758CE6
:0B0E8F0006758A06D288D28AC28C2227
:03000300020E5E8C
:100E5E00B202300013C289C2AAC28C750A00750B89
:100E6E003275080075090032C2A8C28BD2AAD28C84
:010E7E003241
:03001300020D8A51
:100D8A00C0E0C2AA20B342E50B6432450A603AE5E4
:100D9A000B450A603420B40AD201750C00750D01A6
:100DAA0080E220B50AD201750C00750D0280D520AB
:100DBA00B60AD201750C00750D0380C820B7C5D2DA
:0C0DCA0001750C00750D0480BBD0E032F8
:03000B00020E34AE
:100E3400C0E0C0D00509E50970020508200116B418
:100E44009013E508B4010EE50B150B7002150A7535
:0A0E54000800750900D0D0D0E0328C
:100800008E0E8F0FAB05AA04E50FC4F8540FC8680D
:10081000FFE50EC454F048FE74692FF582740A3E59
:10082000F583E493FE740193FFEE4F24FF9290E56D
:100830000FC4F8540FC868FFE50EC454F048FE74A6
:100840006B2FF582740A3EF583E493FE740193FFE7
:10085000EE4F24FF9291E50FC4F8540FC868FFE5EE
:100860000EC454F048FE746D2FF582740A3EF58371
:10087000E493FE740193FFEE4F24FF9292E50FC4C0
:10088000F8540FC868FFE50EC454F048FE746F2F8B
:10089000F582740A3EF583E493FE740193FFEE4FF4
:1008A00024FF9293E50FC4F8540FC868FFE50EC407
:1008B00054F048FE74712FF582740A3EF583E49378
:1008C000FE740193FFEE4F24FF9294E50FC4F85499
:1008D0000FC868FFE50EC454F048FE74732FF5820C
:1008E000740A3EF583E493FE740193FFEE4F24FFF8
:1008F0009295E50FC4F8540FC868FFE50EC454F094
:1009000048FE74752FF582740A3EF583E493FE74F5
:100910000193FFEE4F24FF9296E50FC4F8540FC8E1
:1009200068FFE50EC454F048FE74772FF582740A10
:100930003EF583E493FE740193FFEE4F24FF9297FC
:10094000EBC4F8540FC868FFEAC454F048FE746959
:100950002FF582740A3EF583E493FE740193FFEE53
:100960004F24FF92A0EBC4F8540FC868FFEAC454A8
:10097000F048FE746B2FF582740A3EF583E493FE13
:10098000740193FFEE4F24FF92A1EBC4F8540FC8FB
:1009900068FFEAC454F048FE746D2FF582740A3E75
:1009A000F583E493FE740193FFEE4F24FF92A2EBD4
:1009B000C4F8540FC868FFEAC454F048FE746F2F9F
:1009C000F582740A3EF583E493FE740193FFEE4FC3
:1009D00024FF92A3EBC4F8540FC868FFEAC454F094
:1009E00048FE74712FF582740A3EF583E493FE7419
:1009F0000193FFEE4F24FF92A4EBC4F8540FC86894
:100A0000FFEAC454F048FE74732FF582740A3EF571
:100A100083E493FE740193FFEE4F24FF92A5EBC491
:100A2000F8540FC868FFEAC454F048FE74752FF5F7
:100A300082740A3EF583E493FE740193FFEE4F2423
:100A4000FF92A6EBC4F8540FC868FFEAC454F048FC
:100A5000FE74772FF582740A3EF583E493FE7401E9
:090A600093FFEE4F24FF92A72240
:040E0700AB07AA0685
:100E0B007C007D0A120C558F828E83AE02AF037C61
:100E1B00007D0A120C55E5822401FFE43583FEEDBB
:090E2B002408FDE43CFC0208006F
:100CE000C203E4F508F509D201D202C289D2A8C232
:100CF000AAD28C7D08FC7F01FE120800300231E58B
:100D000009B4A028E508B40F2320030E7D077C005A
:100D1000E4FFFE120800D203800D7D087C007F01F5
:100D20007E00120800C203E4F508F509D20080CC69
:090D3000C28CE4F508F509C201CA
:010D39002297
:100D3A00C203E4F508F509D202C289D2A8C2AAD22E
:100D4A008C300232E509B4A029E508B40F24200347
:100D5A000BAF0BAE0A120E07D2038011E50D241158
:100D6A00FDE4350CFCE4FFFE120800C203E4F508BA
:0F0D7A00F509D20080CBC28CE4F508F509C2015F
:010D89002247
:100DD600120E7FAF0BAE0A120E07D3E50B9400E599
:100DE6000A648094805003120CE0300110C3E50BB6
:100DF6009432E50A648094805003120D3AC2008052
:010E0600D219
:03000000020BC927
:0C0BC900787FE4F6D8FD758120020C1046
:100C5500C2D5EC30E709B2D5E4C39DFDE49CFCEEBA
:100C650030E715B2D5E4C39FFFE49EFE120C8BC39B
:100C7500E49DFDE49CFC8003120C8B30D507C3E496
:060C85009FFFE49EFE2229
:100BD500020DD6E493A3F8E493A34003F68001F253
:100BE50008DFF48029E493A3F85407240CC8C33321
:100BF500C4540F4420C8834004F456800146F6DFF0
:100C0500E4800B0102040810204080900E9AE47ED7
:100C1500019360BCA3FF543F30E509541FFEE493E4
:100C2500A360010ECF54C025E060A840B8E493A3AB
:100C3500FAE493A3F8E493A3C8C582C8CAC583CAD6
:100C4500F0A3C8C582C8CAC583CADFE9DEE780BE8E
:010EAC000045
:100C8B00BC000BBE0029EF8DF084FFADF022E4CC4D
:100C9B00F875F008EF2FFFEE33FEEC33FCEE9DEC16
:100CAB00984005FCEE9DFE0FD5F0E9E4CEFD22ED5C
:100CBB00F8F5F0EE8420D21CFEADF075F008EF2FA6
:100CCB00FFED33FD4007985006D5F0F222C398FD97
:050CDB000FD5F0EA2234
:00000001FF
